{"contracts/HederaResponseCodes.sol":{"HederaResponseCodes":{"abi":[{"inputs":[],"name":"INSUFFICIENT_TOKEN_BALANCE","outputs":[{"internalType":"int32","name":"","type":"int32"}],"stateMutability":"view","type":"function"},{"inputs":[],"name":"INVALID_TOKEN_ID","outputs":[{"internalType":"int32","name":"","type":"int32"}],"stateMutability":"view","type":"function"},{"inputs":[],"name":"SUCCESS","outputs":[{"internalType":"int32","name":"","type":"int32"}],"stateMutability":"view","type":"function"},{"inputs":[],"name":"TOKEN_NOT_ASSOCIATED_TO_ACCOUNT","outputs":[{"internalType":"int32","name":"","type":"int32"}],"stateMutability":"view","type":"function"}],"evm":{"bytecode":{"linkReferences":{},"object":"60bf610039600b82828239805160001a60731461002c57634e487b7160e01b600052600060045260246000fd5b30600052607381538281f3fe730000000000000000000000000000000000000000301460806040526004361060515760003560e01c80637829c5da146056578063aa2bf7d3146074578063b49aa3b514607b578063d0a6d1a6146082575b600080fd5b605d601881565b60405160039190910b815260200160405180910390f35b605d601981565b605d601781565b605d60168156fea2646970667358221220274f9878457bda1b8a3d358f6b8a82d4a58dbc00364c47b87d5841ad6b46a29464736f6c63430008070033","opcodes":"PUSH1 0xBF PUSH2 0x39 PUSH1 0xB DUP3 DUP3 DUP3 CODECOPY DUP1 MLOAD PUSH1 0x0 BYTE PUSH1 0x73 EQ PUSH2 0x2C JUMPI PUSH4 0x4E487B71 PUSH1 0xE0 SHL PUSH1 0x0 MSTORE PUSH1 0x0 PUSH1 0x4 MSTORE PUSH1 0x24 PUSH1 0x0 REVERT JUMPDEST ADDRESS PUSH1 0x0 MSTORE PUSH1 0x73 DUP2 MSTORE8 DUP3 DUP2 RETURN INVALID PUSH20 0x0 ADDRESS EQ PUSH1 0x80 PUSH1 0x40 MSTORE PUSH1 0x4 CALLDATASIZE LT PUSH1 0x51 JUMPI PUSH1 0x0 CALLDATALOAD PUSH1 0xE0 SHR DUP1 PUSH4 0x7829C5DA EQ PUSH1 0x56 JUMPI DUP1 PUSH4 0xAA2BF7D3 EQ PUSH1 0x74 JUMPI DUP1 PUSH4 0xB49AA3B5 EQ PUSH1 0x7B JUMPI DUP1 PUSH4 0xD0A6D1A6 EQ PUSH1 0x82 JUMPI JUMPDEST PUSH1 0x0 DUP1 REVERT JUMPDEST PUSH1 0x5D PUSH1 0x18 DUP2 JUMP JUMPDEST PUSH1 0x40 MLOAD PUSH1 0x3 SWAP2 SWAP1 SWAP2 SIGNEXTEND DUP2 MSTORE PUSH1 0x20 ADD PUSH1 0x40 MLOAD DUP1 SWAP2 SUB SWAP1 RETURN JUMPDEST PUSH1 0x5D PUSH1 0x19 DUP2 JUMP JUMPDEST PUSH1 0x5D PUSH1 0x17 DUP2 JUMP JUMPDEST PUSH1 0x5D PUSH1 0x16 DUP2 JUMP INVALID LOG2 PUSH5 0x6970667358 0x22 SLT KECCAK256 0x27 0x4F SWAP9 PUSH25 0x457BDA1B8A3D358F6B8A82D4A58DBC00364C47B87D5841AD6B CHAINID LOG2 SWAP5 PUSH5 0x736F6C6343 STOP ADDMOD SMOD STOP CALLER "},"methodIdentifiers":{"INSUFFICIENT_TOKEN_BALANCE()":"7829c5da","INVALID_TOKEN_ID()":"b49aa3b5","SUCCESS()":"d0a6d1a6","TOKEN_NOT_ASSOCIATED_TO_ACCOUNT()":"aa2bf7d3"}}}}}