{"contracts/LoyaltyStaking.sol":{"LoyaltyStaking":{"abi":[{"inputs":[{"internalType":"address","name":"_loyaltyToken","type":"address"}],"stateMutability":"nonpayable","type":"constructor"},{"anonymous":false,"inputs":[{"indexed":true,"internalType":"address","name":"user","type":"address"},{"indexed":false,"internalType":"uint256","name":"rewards","type":"uint256"},{"indexed":false,"internalType":"uint256","name":"timestamp","type":"uint256"}],"name":"RewardsClaimed","type":"event"},{"anonymous":false,"inputs":[{"indexed":true,"internalType":"address","name":"user","type":"address"},{"indexed":false,"internalType":"uint256","name":"amount","type":"uint256"},{"indexed":false,"internalType":"uint256","name":"timestamp","type":"uint256"}],"name":"Staked","type":"event"},{"anonymous":false,"inputs":[{"indexed":true,"internalType":"address","name":"user","type":"address"},{"indexed":false,"internalType":"uint256","name":"amount","type":"uint256"},{"indexed":false,"internalType":"uint256","name":"timestamp","type":"uint256"}],"name":"Unstaked","type":"event"},{"inputs":[],"name":"MIN_STAKE_AMOUNT","outputs":[{"internalType":"uint256","name":"","type":"uint256"}],"stateMutability":"view","type":"function"},{"inputs":[],"name":"REWARD_RATE","outputs":[{"internalType":"uint256","name":"","type":"uint256"}],"stateMutability":"view","type":"function"},{"inputs":[],"name":"SECONDS_IN_YEAR","outputs":[{"internalType":"uint256","name":"","type":"uint256"}],"stateMutability":"view","type":"function"},{"inputs":[{"internalType":"address","name":"user","type":"address"}],"name":"calculatePendingRewards","outputs":[{"internalType":"uint256","name":"","type":"uint256"}],"stateMutability":"view","type":"function"},{"inputs":[],"name":"claimRewards","outputs":[],"stateMutability":"nonpayable","type":"function"},{"inputs":[],"name":"emergencyWithdraw","outputs":[],"stateMutability":"nonpayable","type":"function"},{"inputs":[{"internalType":"address","name":"user","type":"address"}],"name":"getUserStakeInfo","outputs":[{"internalType":"uint256","name":"stakedAmount","type":"uint256"},{"internalType":"uint256","name":"pendingRewards","type":"uint256"},{"internalType":"uint256","name":"totalClaimed","type":"uint256"},{"internalType":"uint256","name":"stakingDuration","type":"uint256"}],"stateMutability":"view","type":"function"},{"inputs":[],"name":"loyaltyToken","outputs":[{"internalType":"address","name":"","type":"address"}],"stateMutability":"view","type":"function"},{"inputs":[],"name":"owner","outputs":[{"internalType":"address","name":"","type":"address"}],"stateMutability":"view","type":"function"},{"inputs":[{"internalType":"uint256","name":"amount","type":"uint256"}],"name":"stake","outputs":[],"stateMutability":"nonpayable","type":"function"},{"inputs":[],"name":"totalRewardsPaid","outputs":[{"internalType":"uint256","name":"","type":"uint256"}],"stateMutability":"view","type":"function"},{"inputs":[],"name":"totalStaked","outputs":[{"internalType":"uint256","name":"","type":"uint256"}],"stateMutability":"view","type":"function"},{"inputs":[{"internalType":"uint256","name":"amount","type":"uint256"}],"name":"unstake","outputs":[],"stateMutability":"nonpayable","type":"function"},{"inputs":[{"internalType":"address","name":"","type":"address"}],"name":"userStakes","outputs":[{"internalType":"uint256","name":"amount","type":"uint256"},{"internalType":"uint256","name":"startTime","type":"uint256"},{"internalType":"uint256","name":"lastClaimTime","type":"uint256"},{"internalType":"uint256","name":"totalRewardsClaimed","type":"uint256"}],"stateMutability":"view","type":"function"}],"evm":{"bytecode":{"linkReferences":{},"object":"6080604052600280546001600160a01b03191661016717905534801561002457600080fd5b50604051610d00380380610d0083398101604081905261004391610071565b600080546001600160a01b039092166001600160a01b031992831617905560018054909116331790556100a1565b60006020828403121561008357600080fd5b81516001600160a01b038116811461009a57600080fd5b9392505050565b610c50806100b06000396000f3fe608060405234801561001057600080fd5b50600436106100ea5760003560e01c8063770aa84d1161008c5780638da7ad23116100665780638da7ad231461019e578063a694fc3a146101f5578063c32d3ae214610208578063db2e21bc1461021b57600080fd5b8063770aa84d14610157578063817b1cd2146101825780638da5cb5b1461018b57600080fd5b8063372500ab116100c8578063372500ab146101325780635997bb371461013a5780635dcc93911461014357806374958e351461014e57600080fd5b8063097aad10146100ef57806327ed7188146101155780632e17de781461011d575b600080fd5b6101026100fd366004610a50565b610223565b6040519081526020015b60405180910390f35b610102606481565b61013061012b366004610a99565b6102cd565b005b61013061048c565b6101026103e881565b6101026301e1338081565b61010260055481565b60005461016a906001600160a01b031681565b6040516001600160a01b03909116815260200161010c565b61010260045481565b60015461016a906001600160a01b031681565b6101d56101ac366004610a50565b600360208190526000918252604090912080546001820154600283015492909301549092919084565b60408051948552602085019390935291830152606082015260800161010c565b610130610203366004610a99565b61066c565b6101d5610216366004610a50565b610838565b6101306108c8565b6001600160a01b0381166000908152600360208181526040808420815160808101835281548082526001830154948201949094526002820154928101929092529092015460608301526102795750600092915050565b600081604001514261028b9190610bed565b9050600061029f6301e13380612710610bce565b835183906102b0906103e890610bce565b6102ba9190610bce565b6102c49190610bac565b95945050505050565b33600090815260036020526040902080548211156103325760405162461bcd60e51b815260206004820152601a60248201527f496e73756666696369656e74207374616b656420616d6f756e7400000000000060448201526064015b60405180910390fd5b61033a61048c565b8181600001600082825461034e9190610bed565b9250508190555081600460008282546103679190610bed565b90915550506002546000805460405163eca3691760e01b815291926001600160a01b039081169263eca36917926103a8921690309033908990600401610ab2565b602060405180830381600087803b1580156103c257600080fd5b505af11580156103d6573d6000803e3d6000fd5b505050506040513d601f19601f820116820180604052508101906103fa9190610a80565b90506016811461044c5760405162461bcd60e51b815260206004820152601760248201527f556e7374616b65207472616e73666572206661696c65640000000000000000006044820152606401610329565b6040805184815242602082015233917f7fc4727e062e336010f2c282598ef5f14facb3de68cf8195c2f23e1454b2b74e91015b60405180910390a2505050565b33600090815260036020526040902080546104da5760405162461bcd60e51b815260206004820152600e60248201526d139bc81cdd185ad948199bdd5b9960921b6044820152606401610329565b60006104e533610223565b90508015610668574282600201819055508082600301600082825461050a9190610b94565b9250508190555080600560008282546105239190610b94565b90915550506040805160008082526020820190925281610553565b606081526020019060019003908161053e5790505b506002546000805460405163707a02cd60e11b815293945090926001600160a01b039283169263e0f4059a926105929291169087908790600401610adf565b602060405180830381600087803b1580156105ac57600080fd5b505af11580156105c0573d6000803e3d6000fd5b505050506040513d601f19601f820116820180604052508101906105e49190610a80565b90506016811461062b5760405162461bcd60e51b815260206004820152601260248201527114995dd85c99081b5a5b9d0819985a5b195960721b6044820152606401610329565b6040805184815242602082015233917fdacbdde355ba930696a362ea6738feb9f8bd52dfb3d81947558fd3217e23e325910160405180910390a250505b5050565b60648110156106bd5760405162461bcd60e51b815260206004820152601a60248201527f416d6f756e742062656c6f77206d696e696d756d207374616b650000000000006044820152606401610329565b33600090815260036020526040902054156106da576106da61048c565b6002546000805460405163eca3691760e01b815291926001600160a01b039081169263eca3691792610716921690339030908890600401610ab2565b602060405180830381600087803b15801561073057600080fd5b505af1158015610744573d6000803e3d6000fd5b505050506040513d601f19601f820116820180604052508101906107689190610a80565b9050601681146107b25760405162461bcd60e51b815260206004820152601560248201527414dd185ad9481d1c985b9cd9995c8819985a5b1959605a1b6044820152606401610329565b3360009081526003602052604081208054909184918391906107d5908490610b94565b909155505042600182018190556002820155600480548491906000906107fc908490610b94565b90915550506040805184815242602082015233917f1449c6dd7851abc30abf37f57715f492010519147cc2652fbc38202c18a6ee90910161047f565b6001600160a01b0381166000908152600360208181526040808420815160808101835281548082526001830154948201949094526002820154928101929092529092015460608301528291829182919061089187610223565b826060015160008460200151116108a95760006108b8565b60208401516108b89042610bed565b9450945094509450509193509193565b33600090815260036020526040902080548061091d5760405162461bcd60e51b81526020600482015260146024820152734e6f207374616b6520746f20776974686472617760601b6044820152606401610329565b600080835560048054839290610934908490610bed565b90915550506002546000805460405163eca3691760e01b815291926001600160a01b039081169263eca3691792610975921690309033908890600401610ab2565b602060405180830381600087803b15801561098f57600080fd5b505af11580156109a3573d6000803e3d6000fd5b505050506040513d601f19601f820116820180604052508101906109c79190610a80565b905060168114610a195760405162461bcd60e51b815260206004820152601b60248201527f456d657267656e6379207769746864726177616c206661696c656400000000006044820152606401610329565b6040805183815242602082015233917f7fc4727e062e336010f2c282598ef5f14facb3de68cf8195c2f23e1454b2b74e910161047f565b600060208284031215610a6257600080fd5b81356001600160a01b0381168114610a7957600080fd5b9392505050565b600060208284031215610a9257600080fd5b5051919050565b600060208284031215610aab57600080fd5b5035919050565b6001600160a01b03948516815292841660208401529216604082015260079190910b606082015260800190565b60006060820160018060a01b038616835260208560070b818501526060604085015281855180845260808601915060808160051b87010193508287016000805b83811015610b8457888703607f1901855282518051808952835b81811015610b54578281018901518a82018a01528801610b39565b81811115610b64578489838c0101525b50601f01601f191697909701860196509385019391850191600101610b1f565b50949a9950505050505050505050565b60008219821115610ba757610ba7610c04565b500190565b600082610bc957634e487b7160e01b600052601260045260246000fd5b500490565b6000816000190483118215151615610be857610be8610c04565b500290565b600082821015610bff57610bff610c04565b500390565b634e487b7160e01b600052601160045260246000fdfea264697066735822122041d8602805ae42bcac2590860c8bfb3c930384bf4be61b559278ed9739cb862d64736f6c63430008070033","opcodes":"PUSH1 0x80 PUSH1 0x40 MSTORE PUSH1 0x2 DUP1 SLOAD PUSH1 0x1 PUSH1 0x1 PUSH1 0xA0 SHL SUB NOT AND PUSH2 0x167 OR SWAP1 SSTORE CALLVALUE DUP1 ISZERO PUSH2 0x24 JUMPI PUSH1 0x0 DUP1 REVERT JUMPDEST POP PUSH1 0x40 MLOAD PUSH2 0xD00 CODESIZE SUB DUP1 PUSH2 0xD00 DUP4 CODECOPY DUP2 ADD PUSH1 0x40 DUP2 SWAP1 MSTORE PUSH2 0x43 SWAP2 PUSH2 0x71 JUMP JUMPDEST PUSH1 0x0 DUP1 SLOAD PUSH1 0x1 PUSH1 0x1 PUSH1 0xA0 SHL SUB SWAP1 SWAP3 AND PUSH1 0x1 PUSH1 0x1 PUSH1 0xA0 SHL SUB NOT SWAP3 DUP4 AND OR SWAP1 SSTORE PUSH1 0x1 DUP1 SLOAD SWAP1 SWAP2 AND CALLER OR SWAP1 SSTORE PUSH2 0xA1 JUMP JUMPDEST PUSH1 0x0 PUSH1 0x20 DUP3 DUP5 SUB SLT ISZERO PUSH2 0x83 JUMPI PUSH1 0x0 DUP1 REVERT JUMPDEST DUP2 MLOAD PUSH1 0x1 PUSH1 0x1 PUSH1 0xA0 SHL SUB DUP2 AND DUP2 EQ PUSH2 0x9A JUMPI PUSH1 0x0 DUP1 REVERT JUMPDEST SWAP4 SWAP3 POP POP POP JUMP JUMPDEST PUSH2 0xC50 DUP1 PUSH2 0xB0 PUSH1 0x0 CODECOPY PUSH1 0x0 RETURN INVALID PUSH1 0x80 PUSH1 0x40 MSTORE CALLVALUE DUP1 ISZERO PUSH2 0x10 JUMPI PUSH1 0x0 DUP1 REVERT JUMPDEST POP PUSH1 0x4 CALLDATASIZE LT PUSH2 0xEA JUMPI PUSH1 0x0 CALLDATALOAD PUSH1 0xE0 SHR DUP1 PUSH4 0x770AA84D GT PUSH2 0x8C JUMPI DUP1 PUSH4 0x8DA7AD23 GT PUSH2 0x66 JUMPI DUP1 PUSH4 0x8DA7AD23 EQ PUSH2 0x19E JUMPI DUP1 PUSH4 0xA694FC3A EQ PUSH2 0x1F5 JUMPI DUP1 PUSH4 0xC32D3AE2 EQ PUSH2 0x208 JUMPI DUP1 PUSH4 0xDB2E21BC EQ PUSH2 0x21B JUMPI PUSH1 0x0 DUP1 REVERT JUMPDEST DUP1 PUSH4 0x770AA84D EQ PUSH2 0x157 JUMPI DUP1 PUSH4 0x817B1CD2 EQ PUSH2 0x182 JUMPI DUP1 PUSH4 0x8DA5CB5B EQ PUSH2 0x18B JUMPI PUSH1 0x0 DUP1 REVERT JUMPDEST DUP1 PUSH4 0x372500AB GT PUSH2 0xC8 JUMPI DUP1 PUSH4 0x372500AB EQ PUSH2 0x132 JUMPI DUP1 PUSH4 0x5997BB37 EQ PUSH2 0x13A JUMPI DUP1 PUSH4 0x5DCC9391 EQ PUSH2 0x143 JUMPI DUP1 PUSH4 0x74958E35 EQ PUSH2 0x14E JUMPI PUSH1 0x0 DUP1 REVERT JUMPDEST DUP1 PUSH4 0x97AAD10 EQ PUSH2 0xEF JUMPI DUP1 PUSH4 0x27ED7188 EQ PUSH2 0x115 JUMPI DUP1 PUSH4 0x2E17DE78 EQ PUSH2 0x11D JUMPI JUMPDEST PUSH1 0x0 DUP1 REVERT JUMPDEST PUSH2 0x102 PUSH2 0xFD CALLDATASIZE PUSH1 0x4 PUSH2 0xA50 JUMP JUMPDEST PUSH2 0x223 JUMP JUMPDEST PUSH1 0x40 MLOAD SWAP1 DUP2 MSTORE PUSH1 0x20 ADD JUMPDEST PUSH1 0x40 MLOAD DUP1 SWAP2 SUB SWAP1 RETURN JUMPDEST PUSH2 0x102 PUSH1 0x64 DUP2 JUMP JUMPDEST PUSH2 0x130 PUSH2 0x12B CALLDATASIZE PUSH1 0x4 PUSH2 0xA99 JUMP JUMPDEST PUSH2 0x2CD JUMP JUMPDEST STOP JUMPDEST PUSH2 0x130 PUSH2 0x48C JUMP JUMPDEST PUSH2 0x102 PUSH2 0x3E8 DUP2 JUMP JUMPDEST PUSH2 0x102 PUSH4 0x1E13380 DUP2 JUMP JUMPDEST PUSH2 0x102 PUSH1 0x5 SLOAD DUP2 JUMP JUMPDEST PUSH1 0x0 SLOAD PUSH2 0x16A SWAP1 PUSH1 0x1 PUSH1 0x1 PUSH1 0xA0 SHL SUB AND DUP2 JUMP JUMPDEST PUSH1 0x40 MLOAD PUSH1 0x1 PUSH1 0x1 PUSH1 0xA0 SHL SUB SWAP1 SWAP2 AND DUP2 MSTORE PUSH1 0x20 ADD PUSH2 0x10C JUMP JUMPDEST PUSH2 0x102 PUSH1 0x4 SLOAD DUP2 JUMP JUMPDEST PUSH1 0x1 SLOAD PUSH2 0x16A SWAP1 PUSH1 0x1 PUSH1 0x1 PUSH1 0xA0 SHL SUB AND DUP2 JUMP JUMPDEST PUSH2 0x1D5 PUSH2 0x1AC CALLDATASIZE PUSH1 0x4 PUSH2 0xA50 JUMP JUMPDEST PUSH1 0x3 PUSH1 0x20 DUP2 SWAP1 MSTORE PUSH1 0x0 SWAP2 DUP3 MSTORE PUSH1 0x40 SWAP1 SWAP2 KECCAK256 DUP1 SLOAD PUSH1 0x1 DUP3 ADD SLOAD PUSH1 0x2 DUP4 ADD SLOAD SWAP3 SWAP1 SWAP4 ADD SLOAD SWAP1 SWAP3 SWAP2 SWAP1 DUP5 JUMP JUMPDEST PUSH1 0x40 DUP1 MLOAD SWAP5 DUP6 MSTORE PUSH1 0x20 DUP6 ADD SWAP4 SWAP1 SWAP4 MSTORE SWAP2 DUP4 ADD MSTORE PUSH1 0x60 DUP3 ADD MSTORE PUSH1 0x80 ADD PUSH2 0x10C JUMP JUMPDEST PUSH2 0x130 PUSH2 0x203 CALLDATASIZE PUSH1 0x4 PUSH2 0xA99 JUMP JUMPDEST PUSH2 0x66C JUMP JUMPDEST PUSH2 0x1D5 PUSH2 0x216 CALLDATASIZE PUSH1 0x4 PUSH2 0xA50 JUMP JUMPDEST PUSH2 0x838 JUMP JUMPDEST PUSH2 0x130 PUSH2 0x8C8 JUMP JUMPDEST PUSH1 0x1 PUSH1 0x1 PUSH1 0xA0 SHL SUB DUP2 AND PUSH1 0x0 SWAP1 DUP2 MSTORE PUSH1 0x3 PUSH1 0x20 DUP2 DUP2 MSTORE PUSH1 0x40 DUP1 DUP5 KECCAK256 DUP2 MLOAD PUSH1 0x80 DUP2 ADD DUP4 MSTORE DUP2 SLOAD DUP1 DUP3 MSTORE PUSH1 0x1 DUP4 ADD SLOAD SWAP5 DUP3 ADD SWAP5 SWAP1 SWAP5 MSTORE PUSH1 0x2 DUP3 ADD SLOAD SWAP3 DUP2 ADD SWAP3 SWAP1 SWAP3 MSTORE SWAP1 SWAP3 ADD SLOAD PUSH1 0x60 DUP4 ADD MSTORE PUSH2 0x279 JUMPI POP PUSH1 0x0 SWAP3 SWAP2 POP POP JUMP JUMPDEST PUSH1 0x0 DUP2 PUSH1 0x40 ADD MLOAD TIMESTAMP PUSH2 0x28B SWAP2 SWAP1 PUSH2 0xBED JUMP JUMPDEST SWAP1 POP PUSH1 0x0 PUSH2 0x29F PUSH4 0x1E13380 PUSH2 0x2710 PUSH2 0xBCE JUMP JUMPDEST DUP4 MLOAD DUP4 SWAP1 PUSH2 0x2B0 SWAP1 PUSH2 0x3E8 SWAP1 PUSH2 0xBCE JUMP JUMPDEST PUSH2 0x2BA SWAP2 SWAP1 PUSH2 0xBCE JUMP JUMPDEST PUSH2 0x2C4 SWAP2 SWAP1 PUSH2 0xBAC JUMP JUMPDEST SWAP6 SWAP5 POP POP POP POP POP JUMP JUMPDEST CALLER PUSH1 0x0 SWAP1 DUP2 MSTORE PUSH1 0x3 PUSH1 0x20 MSTORE PUSH1 0x40 SWAP1 KECCAK256 DUP1 SLOAD DUP3 GT ISZERO PUSH2 0x332 JUMPI PUSH1 0x40 MLOAD PUSH3 0x461BCD PUSH1 0xE5 SHL DUP2 MSTORE PUSH1 0x20 PUSH1 0x4 DUP3 ADD MSTORE PUSH1 0x1A PUSH1 0x24 DUP3 ADD MSTORE PUSH32 0x496E73756666696369656E74207374616B656420616D6F756E74000000000000 PUSH1 0x44 DUP3 ADD MSTORE PUSH1 0x64 ADD JUMPDEST PUSH1 0x40 MLOAD DUP1 SWAP2 SUB SWAP1 REVERT JUMPDEST PUSH2 0x33A PUSH2 0x48C JUMP JUMPDEST DUP2 DUP2 PUSH1 0x0 ADD PUSH1 0x0 DUP3 DUP3 SLOAD PUSH2 0x34E SWAP2 SWAP1 PUSH2 0xBED JUMP JUMPDEST SWAP3 POP POP DUP2 SWAP1 SSTORE POP DUP2 PUSH1 0x4 PUSH1 0x0 DUP3 DUP3 SLOAD PUSH2 0x367 SWAP2 SWAP1 PUSH2 0xBED JUMP JUMPDEST SWAP1 SWAP2 SSTORE POP POP PUSH1 0x2 SLOAD PUSH1 0x0 DUP1 SLOAD PUSH1 0x40 MLOAD PUSH4 0xECA36917 PUSH1 0xE0 SHL DUP2 MSTORE SWAP2 SWAP3 PUSH1 0x1 PUSH1 0x1 PUSH1 0xA0 SHL SUB SWAP1 DUP2 AND SWAP3 PUSH4 0xECA36917 SWAP3 PUSH2 0x3A8 SWAP3 AND SWAP1 ADDRESS SWAP1 CALLER SWAP1 DUP10 SWAP1 PUSH1 0x4 ADD PUSH2 0xAB2 JUMP JUMPDEST PUSH1 0x20 PUSH1 0x40 MLOAD DUP1 DUP4 SUB DUP2 PUSH1 0x0 DUP8 DUP1 EXTCODESIZE ISZERO DUP1 ISZERO PUSH2 0x3C2 JUMPI PUSH1 0x0 DUP1 REVERT JUMPDEST POP GAS CALL ISZERO DUP1 ISZERO PUSH2 0x3D6 JUMPI RETURNDATASIZE PUSH1 0x0 DUP1 RETURNDATACOPY RETURNDATASIZE PUSH1 0x0 REVERT JUMPDEST POP POP POP POP PUSH1 0x40 MLOAD RETURNDATASIZE PUSH1 0x1F NOT PUSH1 0x1F DUP3 ADD AND DUP3 ADD DUP1 PUSH1 0x40 MSTORE POP DUP2 ADD SWAP1 PUSH2 0x3FA SWAP2 SWAP1 PUSH2 0xA80 JUMP JUMPDEST SWAP1 POP PUSH1 0x16 DUP2 EQ PUSH2 0x44C JUMPI PUSH1 0x40 MLOAD PUSH3 0x461BCD PUSH1 0xE5 SHL DUP2 MSTORE PUSH1 0x20 PUSH1 0x4 DUP3 ADD MSTORE PUSH1 0x17 PUSH1 0x24 DUP3 ADD MSTORE PUSH32 0x556E7374616B65207472616E73666572206661696C6564000000000000000000 PUSH1 0x44 DUP3 ADD MSTORE PUSH1 0x64 ADD PUSH2 0x329 JUMP JUMPDEST PUSH1 0x40 DUP1 MLOAD DUP5 DUP2 MSTORE TIMESTAMP PUSH1 0x20 DUP3 ADD MSTORE CALLER SWAP2 PUSH32 0x7FC4727E062E336010F2C282598EF5F14FACB3DE68CF8195C2F23E1454B2B74E SWAP2 ADD JUMPDEST PUSH1 0x40 MLOAD DUP1 SWAP2 SUB SWAP1 LOG2 POP POP POP JUMP JUMPDEST CALLER PUSH1 0x0 SWAP1 DUP2 MSTORE PUSH1 0x3 PUSH1 0x20 MSTORE PUSH1 0x40 SWAP1 KECCAK256 DUP1 SLOAD PUSH2 0x4DA JUMPI PUSH1 0x40 MLOAD PUSH3 0x461BCD PUSH1 0xE5 SHL DUP2 MSTORE PUSH1 0x20 PUSH1 0x4 DUP3 ADD MSTORE PUSH1 0xE PUSH1 0x24 DUP3 ADD MSTORE PUSH14 0x139BC81CDD185AD948199BDD5B99 PUSH1 0x92 SHL PUSH1 0x44 DUP3 ADD MSTORE PUSH1 0x64 ADD PUSH2 0x329 JUMP JUMPDEST PUSH1 0x0 PUSH2 0x4E5 CALLER PUSH2 0x223 JUMP JUMPDEST SWAP1 POP DUP1 ISZERO PUSH2 0x668 JUMPI TIMESTAMP DUP3 PUSH1 0x2 ADD DUP2 SWAP1 SSTORE POP DUP1 DUP3 PUSH1 0x3 ADD PUSH1 0x0 DUP3 DUP3 SLOAD PUSH2 0x50A SWAP2 SWAP1 PUSH2 0xB94 JUMP JUMPDEST SWAP3 POP POP DUP2 SWAP1 SSTORE POP DUP1 PUSH1 0x5 PUSH1 0x0 DUP3 DUP3 SLOAD PUSH2 0x523 SWAP2 SWAP1 PUSH2 0xB94 JUMP JUMPDEST SWAP1 SWAP2 SSTORE POP POP PUSH1 0x40 DUP1 MLOAD PUSH1 0x0 DUP1 DUP3 MSTORE PUSH1 0x20 DUP3 ADD SWAP1 SWAP3 MSTORE DUP2 PUSH2 0x553 JUMP JUMPDEST PUSH1 0x60 DUP2 MSTORE PUSH1 0x20 ADD SWAP1 PUSH1 0x1 SWAP1 SUB SWAP1 DUP2 PUSH2 0x53E JUMPI SWAP1 POP JUMPDEST POP PUSH1 0x2 SLOAD PUSH1 0x0 DUP1 SLOAD PUSH1 0x40 MLOAD PUSH4 0x707A02CD PUSH1 0xE1 SHL DUP2 MSTORE SWAP4 SWAP5 POP SWAP1 SWAP3 PUSH1 0x1 PUSH1 0x1 PUSH1 0xA0 SHL SUB SWAP3 DUP4 AND SWAP3 PUSH4 0xE0F4059A SWAP3 PUSH2 0x592 SWAP3 SWAP2 AND SWAP1 DUP8 SWAP1 DUP8 SWAP1 PUSH1 0x4 ADD PUSH2 0xADF JUMP JUMPDEST PUSH1 0x20 PUSH1 0x40 MLOAD DUP1 DUP4 SUB DUP2 PUSH1 0x0 DUP8 DUP1 EXTCODESIZE ISZERO DUP1 ISZERO PUSH2 0x5AC JUMPI PUSH1 0x0 DUP1 REVERT JUMPDEST POP GAS CALL ISZERO DUP1 ISZERO PUSH2 0x5C0 JUMPI RETURNDATASIZE PUSH1 0x0 DUP1 RETURNDATACOPY RETURNDATASIZE PUSH1 0x0 REVERT JUMPDEST POP POP POP POP PUSH1 0x40 MLOAD RETURNDATASIZE PUSH1 0x1F NOT PUSH1 0x1F DUP3 ADD AND DUP3 ADD DUP1 PUSH1 0x40 MSTORE POP DUP2 ADD SWAP1 PUSH2 0x5E4 SWAP2 SWAP1 PUSH2 0xA80 JUMP JUMPDEST SWAP1 POP PUSH1 0x16 DUP2 EQ PUSH2 0x62B JUMPI PUSH1 0x40 MLOAD PUSH3 0x461BCD PUSH1 0xE5 SHL DUP2 MSTORE PUSH1 0x20 PUSH1 0x4 DUP3 ADD MSTORE PUSH1 0x12 PUSH1 0x24 DUP3 ADD MSTORE PUSH18 0x14995DD85C99081B5A5B9D0819985A5B1959 PUSH1 0x72 SHL PUSH1 0x44 DUP3 ADD MSTORE PUSH1 0x64 ADD PUSH2 0x329 JUMP JUMPDEST PUSH1 0x40 DUP1 MLOAD DUP5 DUP2 MSTORE TIMESTAMP PUSH1 0x20 DUP3 ADD MSTORE CALLER SWAP2 PUSH32 0xDACBDDE355BA930696A362EA6738FEB9F8BD52DFB3D81947558FD3217E23E325 SWAP2 ADD PUSH1 0x40 MLOAD DUP1 SWAP2 SUB SWAP1 LOG2 POP POP JUMPDEST POP POP JUMP JUMPDEST PUSH1 0x64 DUP2 LT ISZERO PUSH2 0x6BD JUMPI PUSH1 0x40 MLOAD PUSH3 0x461BCD PUSH1 0xE5 SHL DUP2 MSTORE PUSH1 0x20 PUSH1 0x4 DUP3 ADD MSTORE PUSH1 0x1A PUSH1 0x24 DUP3 ADD MSTORE PUSH32 0x416D6F756E742062656C6F77206D696E696D756D207374616B65000000000000 PUSH1 0x44 DUP3 ADD MSTORE PUSH1 0x64 ADD PUSH2 0x329 JUMP JUMPDEST CALLER PUSH1 0x0 SWAP1 DUP2 MSTORE PUSH1 0x3 PUSH1 0x20 MSTORE PUSH1 0x40 SWAP1 KECCAK256 SLOAD ISZERO PUSH2 0x6DA JUMPI PUSH2 0x6DA PUSH2 0x48C JUMP JUMPDEST PUSH1 0x2 SLOAD PUSH1 0x0 DUP1 SLOAD PUSH1 0x40 MLOAD PUSH4 0xECA36917 PUSH1 0xE0 SHL DUP2 MSTORE SWAP2 SWAP3 PUSH1 0x1 PUSH1 0x1 PUSH1 0xA0 SHL SUB SWAP1 DUP2 AND SWAP3 PUSH4 0xECA36917 SWAP3 PUSH2 0x716 SWAP3 AND SWAP1 CALLER SWAP1 ADDRESS SWAP1 DUP9 SWAP1 PUSH1 0x4 ADD PUSH2 0xAB2 JUMP JUMPDEST PUSH1 0x20 PUSH1 0x40 MLOAD DUP1 DUP4 SUB DUP2 PUSH1 0x0 DUP8 DUP1 EXTCODESIZE ISZERO DUP1 ISZERO PUSH2 0x730 JUMPI PUSH1 0x0 DUP1 REVERT JUMPDEST POP GAS CALL ISZERO DUP1 ISZERO PUSH2 0x744 JUMPI RETURNDATASIZE PUSH1 0x0 DUP1 RETURNDATACOPY RETURNDATASIZE PUSH1 0x0 REVERT JUMPDEST POP POP POP POP PUSH1 0x40 MLOAD RETURNDATASIZE PUSH1 0x1F NOT PUSH1 0x1F DUP3 ADD AND DUP3 ADD DUP1 PUSH1 0x40 MSTORE POP DUP2 ADD SWAP1 PUSH2 0x768 SWAP2 SWAP1 PUSH2 0xA80 JUMP JUMPDEST SWAP1 POP PUSH1 0x16 DUP2 EQ PUSH2 0x7B2 JUMPI PUSH1 0x40 MLOAD PUSH3 0x461BCD PUSH1 0xE5 SHL DUP2 MSTORE PUSH1 0x20 PUSH1 0x4 DUP3 ADD MSTORE PUSH1 0x15 PUSH1 0x24 DUP3 ADD MSTORE PUSH21 0x14DD185AD9481D1C985B9CD9995C8819985A5B1959 PUSH1 0x5A SHL PUSH1 0x44 DUP3 ADD MSTORE PUSH1 0x64 ADD PUSH2 0x329 JUMP JUMPDEST CALLER PUSH1 0x0 SWAP1 DUP2 MSTORE PUSH1 0x3 PUSH1 0x20 MSTORE PUSH1 0x40 DUP2 KECCAK256 DUP1 SLOAD SWAP1 SWAP2 DUP5 SWAP2 DUP4 SWAP2 SWAP1 PUSH2 0x7D5 SWAP1 DUP5 SWAP1 PUSH2 0xB94 JUMP JUMPDEST SWAP1 SWAP2 SSTORE POP POP TIMESTAMP PUSH1 0x1 DUP3 ADD DUP2 SWAP1 SSTORE PUSH1 0x2 DUP3 ADD SSTORE PUSH1 0x4 DUP1 SLOAD DUP5 SWAP2 SWAP1 PUSH1 0x0 SWAP1 PUSH2 0x7FC SWAP1 DUP5 SWAP1 PUSH2 0xB94 JUMP JUMPDEST SWAP1 SWAP2 SSTORE POP POP PUSH1 0x40 DUP1 MLOAD DUP5 DUP2 MSTORE TIMESTAMP PUSH1 0x20 DUP3 ADD MSTORE CALLER SWAP2 PUSH32 0x1449C6DD7851ABC30ABF37F57715F492010519147CC2652FBC38202C18A6EE90 SWAP2 ADD PUSH2 0x47F JUMP JUMPDEST PUSH1 0x1 PUSH1 0x1 PUSH1 0xA0 SHL SUB DUP2 AND PUSH1 0x0 SWAP1 DUP2 MSTORE PUSH1 0x3 PUSH1 0x20 DUP2 DUP2 MSTORE PUSH1 0x40 DUP1 DUP5 KECCAK256 DUP2 MLOAD PUSH1 0x80 DUP2 ADD DUP4 MSTORE DUP2 SLOAD DUP1 DUP3 MSTORE PUSH1 0x1 DUP4 ADD SLOAD SWAP5 DUP3 ADD SWAP5 SWAP1 SWAP5 MSTORE PUSH1 0x2 DUP3 ADD SLOAD SWAP3 DUP2 ADD SWAP3 SWAP1 SWAP3 MSTORE SWAP1 SWAP3 ADD SLOAD PUSH1 0x60 DUP4 ADD MSTORE DUP3 SWAP2 DUP3 SWAP2 DUP3 SWAP2 SWAP1 PUSH2 0x891 DUP8 PUSH2 0x223 JUMP JUMPDEST DUP3 PUSH1 0x60 ADD MLOAD PUSH1 0x0 DUP5 PUSH1 0x20 ADD MLOAD GT PUSH2 0x8A9 JUMPI PUSH1 0x0 PUSH2 0x8B8 JUMP JUMPDEST PUSH1 0x20 DUP5 ADD MLOAD PUSH2 0x8B8 SWAP1 TIMESTAMP PUSH2 0xBED JUMP JUMPDEST SWAP5 POP SWAP5 POP SWAP5 POP SWAP5 POP POP SWAP2 SWAP4 POP SWAP2 SWAP4 JUMP JUMPDEST CALLER PUSH1 0x0 SWAP1 DUP2 MSTORE PUSH1 0x3 PUSH1 0x20 MSTORE PUSH1 0x40 SWAP1 KECCAK256 DUP1 SLOAD DUP1 PUSH2 0x91D JUMPI PUSH1 0x40 MLOAD PUSH3 0x461BCD PUSH1 0xE5 SHL DUP2 MSTORE PUSH1 0x20 PUSH1 0x4 DUP3 ADD MSTORE PUSH1 0x14 PUSH1 0x24 DUP3 ADD MSTORE PUSH20 0x4E6F207374616B6520746F207769746864726177 PUSH1 0x60 SHL PUSH1 0x44 DUP3 ADD MSTORE PUSH1 0x64 ADD PUSH2 0x329 JUMP JUMPDEST PUSH1 0x0 DUP1 DUP4 SSTORE PUSH1 0x4 DUP1 SLOAD DUP4 SWAP3 SWAP1 PUSH2 0x934 SWAP1 DUP5 SWAP1 PUSH2 0xBED JUMP JUMPDEST SWAP1 SWAP2 SSTORE POP POP PUSH1 0x2 SLOAD PUSH1 0x0 DUP1 SLOAD PUSH1 0x40 MLOAD PUSH4 0xECA36917 PUSH1 0xE0 SHL DUP2 MSTORE SWAP2 SWAP3 PUSH1 0x1 PUSH1 0x1 PUSH1 0xA0 SHL SUB SWAP1 DUP2 AND SWAP3 PUSH4 0xECA36917 SWAP3 PUSH2 0x975 SWAP3 AND SWAP1 ADDRESS SWAP1 CALLER SWAP1 DUP9 SWAP1 PUSH1 0x4 ADD PUSH2 0xAB2 JUMP JUMPDEST PUSH1 0x20 PUSH1 0x40 MLOAD DUP1 DUP4 SUB DUP2 PUSH1 0x0 DUP8 DUP1 EXTCODESIZE ISZERO DUP1 ISZERO PUSH2 0x98F JUMPI PUSH1 0x0 DUP1 REVERT JUMPDEST POP GAS CALL ISZERO DUP1 ISZERO PUSH2 0x9A3 JUMPI RETURNDATASIZE PUSH1 0x0 DUP1 RETURNDATACOPY RETURNDATASIZE PUSH1 0x0 REVERT JUMPDEST POP POP POP POP PUSH1 0x40 MLOAD RETURNDATASIZE PUSH1 0x1F NOT PUSH1 0x1F DUP3 ADD AND DUP3 ADD DUP1 PUSH1 0x40 MSTORE POP DUP2 ADD SWAP1 PUSH2 0x9C7 SWAP2 SWAP1 PUSH2 0xA80 JUMP JUMPDEST SWAP1 POP PUSH1 0x16 DUP2 EQ PUSH2 0xA19 JUMPI PUSH1 0x40 MLOAD PUSH3 0x461BCD PUSH1 0xE5 SHL DUP2 MSTORE PUSH1 0x20 PUSH1 0x4 DUP3 ADD MSTORE PUSH1 0x1B PUSH1 0x24 DUP3 ADD MSTORE PUSH32 0x456D657267656E6379207769746864726177616C206661696C65640000000000 PUSH1 0x44 DUP3 ADD MSTORE PUSH1 0x64 ADD PUSH2 0x329 JUMP JUMPDEST PUSH1 0x40 DUP1 MLOAD DUP4 DUP2 MSTORE TIMESTAMP PUSH1 0x20 DUP3 ADD MSTORE CALLER SWAP2 PUSH32 0x7FC4727E062E336010F2C282598EF5F14FACB3DE68CF8195C2F23E1454B2B74E SWAP2 ADD PUSH2 0x47F JUMP JUMPDEST PUSH1 0x0 PUSH1 0x20 DUP3 DUP5 SUB SLT ISZERO PUSH2 0xA62 JUMPI PUSH1 0x0 DUP1 REVERT JUMPDEST DUP2 CALLDATALOAD PUSH1 0x1 PUSH1 0x1 PUSH1 0xA0 SHL SUB DUP2 AND DUP2 EQ PUSH2 0xA79 JUMPI PUSH1 0x0 DUP1 REVERT JUMPDEST SWAP4 SWAP3 POP POP POP JUMP JUMPDEST PUSH1 0x0 PUSH1 0x20 DUP3 DUP5 SUB SLT ISZERO PUSH2 0xA92 JUMPI PUSH1 0x0 DUP1 REVERT JUMPDEST POP MLOAD SWAP2 SWAP1 POP JUMP JUMPDEST PUSH1 0x0 PUSH1 0x20 DUP3 DUP5 SUB SLT ISZERO PUSH2 0xAAB JUMPI PUSH1 0x0 DUP1 REVERT JUMPDEST POP CALLDATALOAD SWAP2 SWAP1 POP JUMP JUMPDEST PUSH1 0x1 PUSH1 0x1 PUSH1 0xA0 SHL SUB SWAP5 DUP6 AND DUP2 MSTORE SWAP3 DUP5 AND PUSH1 0x20 DUP5 ADD MSTORE SWAP3 AND PUSH1 0x40 DUP3 ADD MSTORE PUSH1 0x7 SWAP2 SWAP1 SWAP2 SIGNEXTEND PUSH1 0x60 DUP3 ADD MSTORE PUSH1 0x80 ADD SWAP1 JUMP JUMPDEST PUSH1 0x0 PUSH1 0x60 DUP3 ADD PUSH1 0x1 DUP1 PUSH1 0xA0 SHL SUB DUP7 AND DUP4 MSTORE PUSH1 0x20 DUP6 PUSH1 0x7 SIGNEXTEND DUP2 DUP6 ADD MSTORE PUSH1 0x60 PUSH1 0x40 DUP6 ADD MSTORE DUP2 DUP6 MLOAD DUP1 DUP5 MSTORE PUSH1 0x80 DUP7 ADD SWAP2 POP PUSH1 0x80 DUP2 PUSH1 0x5 SHL DUP8 ADD ADD SWAP4 POP DUP3 DUP8 ADD PUSH1 0x0 DUP1 JUMPDEST DUP4 DUP2 LT ISZERO PUSH2 0xB84 JUMPI DUP9 DUP8 SUB PUSH1 0x7F NOT ADD DUP6 MSTORE DUP3 MLOAD DUP1 MLOAD DUP1 DUP10 MSTORE DUP4 JUMPDEST DUP2 DUP2 LT ISZERO PUSH2 0xB54 JUMPI DUP3 DUP2 ADD DUP10 ADD MLOAD DUP11 DUP3 ADD DUP11 ADD MSTORE DUP9 ADD PUSH2 0xB39 JUMP JUMPDEST DUP2 DUP2 GT ISZERO PUSH2 0xB64 JUMPI DUP5 DUP10 DUP4 DUP13 ADD ADD MSTORE JUMPDEST POP PUSH1 0x1F ADD PUSH1 0x1F NOT AND SWAP8 SWAP1 SWAP8 ADD DUP7 ADD SWAP7 POP SWAP4 DUP6 ADD SWAP4 SWAP2 DUP6 ADD SWAP2 PUSH1 0x1 ADD PUSH2 0xB1F JUMP JUMPDEST POP SWAP5 SWAP11 SWAP10 POP POP POP POP POP POP POP POP POP POP JUMP JUMPDEST PUSH1 0x0 DUP3 NOT DUP3 GT ISZERO PUSH2 0xBA7 JUMPI PUSH2 0xBA7 PUSH2 0xC04 JUMP JUMPDEST POP ADD SWAP1 JUMP JUMPDEST PUSH1 0x0 DUP3 PUSH2 0xBC9 JUMPI PUSH4 0x4E487B71 PUSH1 0xE0 SHL PUSH1 0x0 MSTORE PUSH1 0x12 PUSH1 0x4 MSTORE PUSH1 0x24 PUSH1 0x0 REVERT JUMPDEST POP DIV SWAP1 JUMP JUMPDEST PUSH1 0x0 DUP2 PUSH1 0x0 NOT DIV DUP4 GT DUP3 ISZERO ISZERO AND ISZERO PUSH2 0xBE8 JUMPI PUSH2 0xBE8 PUSH2 0xC04 JUMP JUMPDEST POP MUL SWAP1 JUMP JUMPDEST PUSH1 0x0 DUP3 DUP3 LT ISZERO PUSH2 0xBFF JUMPI PUSH2 0xBFF PUSH2 0xC04 JUMP JUMPDEST POP SUB SWAP1 JUMP JUMPDEST PUSH4 0x4E487B71 PUSH1 0xE0 SHL PUSH1 0x0 MSTORE PUSH1 0x11 PUSH1 0x4 MSTORE PUSH1 0x24 PUSH1 0x0 REVERT INVALID LOG2 PUSH5 0x6970667358 0x22 SLT KECCAK256 COINBASE 0xD8 PUSH1 0x28 SDIV 0xAE TIMESTAMP 0xBC 0xAC 0x25 SWAP1 DUP7 0xC DUP12 0xFB EXTCODECOPY SWAP4 SUB DUP5 0xBF 0x4B 0xE6 SHL SSTORE SWAP3 PUSH25 0xED9739CB862D64736F6C634300080700330000000000000000 "},"methodIdentifiers":{"MIN_STAKE_AMOUNT()":"27ed7188","REWARD_RATE()":"5997bb37","SECONDS_IN_YEAR()":"5dcc9391","calculatePendingRewards(address)":"097aad10","claimRewards()":"372500ab","emergencyWithdraw()":"db2e21bc","getUserStakeInfo(address)":"c32d3ae2","loyaltyToken()":"770aa84d","owner()":"8da5cb5b","stake(uint256)":"a694fc3a","totalRewardsPaid()":"74958e35","totalStaked()":"817b1cd2","unstake(uint256)":"2e17de78","userStakes(address)":"8da7ad23"}}}}}