{
  "_format": "hh-sol-artifact-1",
  "contractName": "LoyaltyStaking",
  "sourceName": "contracts/LoyaltyStaking.sol",
  "abi": [
    {
      "inputs": [
        {
          "internalType": "address",
          "name": "_loyaltyToken",
          "type": "address"
        }
      ],
      "stateMutability": "nonpayable",
      "type": "constructor"
    },
    {
      "anonymous": false,
      "inputs": [
        {
          "indexed": true,
          "internalType": "address",
          "name": "user",
          "type": "address"
        },
        {
          "indexed": false,
          "internalType": "uint256",
          "name": "rewards",
          "type": "uint256"
        },
        {
          "indexed": false,
          "internalType": "uint256",
          "name": "timestamp",
          "type": "uint256"
        }
      ],
      "name": "RewardsClaimed",
      "type": "event"
    },
    {
      "anonymous": false,
      "inputs": [
        {
          "indexed": true,
          "internalType": "address",
          "name": "user",
          "type": "address"
        },
        {
          "indexed": false,
          "internalType": "uint256",
          "name": "amount",
          "type": "uint256"
        },
        {
          "indexed": false,
          "internalType": "uint256",
          "name": "timestamp",
          "type": "uint256"
        }
      ],
      "name": "Staked",
      "type": "event"
    },
    {
      "anonymous": false,
      "inputs": [
        {
          "indexed": true,
          "internalType": "address",
          "name": "user",
          "type": "address"
        },
        {
          "indexed": false,
          "internalType": "uint256",
          "name": "amount",
          "type": "uint256"
        },
        {
          "indexed": false,
          "internalType": "uint256",
          "name": "timestamp",
          "type": "uint256"
        }
      ],
      "name": "Unstaked",
      "type": "event"
    },
    {
      "inputs": [],
      "name": "MIN_STAKE_AMOUNT",
      "outputs": [
        {
          "internalType": "uint256",
          "name": "",
          "type": "uint256"
        }
      ],
      "stateMutability": "view",
      "type": "function"
    },
    {
      "inputs": [],
      "name": "REWARD_RATE",
      "outputs": [
        {
          "internalType": "uint256",
          "name": "",
          "type": "uint256"
        }
      ],
      "stateMutability": "view",
      "type": "function"
    },
    {
      "inputs": [],
      "name": "SECONDS_IN_YEAR",
      "outputs": [
        {
          "internalType": "uint256",
          "name": "",
          "type": "uint256"
        }
      ],
      "stateMutability": "view",
      "type": "function"
    },
    {
      "inputs": [
        {
          "internalType": "address",
          "name": "user",
          "type": "address"
        }
      ],
      "name": "calculatePendingRewards",
      "outputs": [
        {
          "internalType": "uint256",
          "name": "",
          "type": "uint256"
        }
      ],
      "stateMutability": "view",
      "type": "function"
    },
    {
      "inputs": [],
      "name": "claimRewards",
      "outputs": [],
      "stateMutability": "nonpayable",
      "type": "function"
    },
    {
      "inputs": [],
      "name": "emergencyWithdraw",
      "outputs": [],
      "stateMutability": "nonpayable",
      "type": "function"
    },
    {
      "inputs": [
        {
          "internalType": "address",
          "name": "user",
          "type": "address"
        }
      ],
      "name": "getUserStakeInfo",
      "outputs": [
        {
          "internalType": "uint256",
          "name": "stakedAmount",
          "type": "uint256"
        },
        {
          "internalType": "uint256",
          "name": "pendingRewards",
          "type": "uint256"
        },
        {
          "internalType": "uint256",
          "name": "totalClaimed",
          "type": "uint256"
        },
        {
          "internalType": "uint256",
          "name": "stakingDuration",
          "type": "uint256"
        }
      ],
      "stateMutability": "view",
      "type": "function"
    },
    {
      "inputs": [],
      "name": "loyaltyToken",
      "outputs": [
        {
          "internalType": "address",
          "name": "",
          "type": "address"
        }
      ],
      "stateMutability": "view",
      "type": "function"
    },
    {
      "inputs": [],
      "name": "owner",
      "outputs": [
        {
          "internalType": "address",
          "name": "",
          "type": "address"
        }
      ],
      "stateMutability": "view",
      "type": "function"
    },
    {
      "inputs": [
        {
          "internalType": "uint256",
          "name": "amount",
          "type": "uint256"
        }
      ],
      "name": "stake",
      "outputs": [],
      "stateMutability": "nonpayable",
      "type": "function"
    },
    {
      "inputs": [],
      "name": "totalRewardsPaid",
      "outputs": [
        {
          "internalType": "uint256",
          "name": "",
          "type": "uint256"
        }
      ],
      "stateMutability": "view",
      "type": "function"
    },
    {
      "inputs": [],
      "name": "totalStaked",
      "outputs": [
        {
          "internalType": "uint256",
          "name": "",
          "type": "uint256"
        }
      ],
      "stateMutability": "view",
      "type": "function"
    },
    {
      "inputs": [
        {
          "internalType": "uint256",
          "name": "amount",
          "type": "uint256"
        }
      ],
      "name": "unstake",
      "outputs": [],
      "stateMutability": "nonpayable",
      "type": "function"
    },
    {
      "inputs": [
        {
          "internalType": "address",
          "name": "",
          "type": "address"
        }
      ],
      "name": "userStakes",
      "outputs": [
        {
          "internalType": "uint256",
          "name": "amount",
          "type": "uint256"
        },
        {
          "internalType": "uint256",
          "name": "startTime",
          "type": "uint256"
        },
        {
          "internalType": "uint256",
          "name": "lastClaimTime",
          "type": "uint256"
        },
        {
          "internalType": "uint256",
          "name": "totalRewardsClaimed",
          "type": "uint256"
        }
      ],
      "stateMutability": "view",
      "type": "function"
    }
  ],
  "bytecode": "0x6080604052600280546001600160a01b03191661016717905534801561002457600080fd5b50604051610d00380380610d0083398101604081905261004391610071565b600080546001600160a01b039092166001600160a01b031992831617905560018054909116331790556100a1565b60006020828403121561008357600080fd5b81516001600160a01b038116811461009a57600080fd5b9392505050565b610c50806100b06000396000f3fe608060405234801561001057600080fd5b50600436106100ea5760003560e01c8063770aa84d1161008c5780638da7ad23116100665780638da7ad231461019e578063a694fc3a146101f5578063c32d3ae214610208578063db2e21bc1461021b57600080fd5b8063770aa84d14610157578063817b1cd2146101825780638da5cb5b1461018b57600080fd5b8063372500ab116100c8578063372500ab146101325780635997bb371461013a5780635dcc93911461014357806374958e351461014e57600080fd5b8063097aad10146100ef57806327ed7188146101155780632e17de781461011d575b600080fd5b6101026100fd366004610a50565b610223565b6040519081526020015b60405180910390f35b610102606481565b61013061012b366004610a99565b6102cd565b005b61013061048c565b6101026103e881565b6101026301e1338081565b61010260055481565b60005461016a906001600160a01b031681565b6040516001600160a01b03909116815260200161010c565b61010260045481565b60015461016a906001600160a01b031681565b6101d56101ac366004610a50565b600360208190526000918252604090912080546001820154600283015492909301549092919084565b60408051948552602085019390935291830152606082015260800161010c565b610130610203366004610a99565b61066c565b6101d5610216366004610a50565b610838565b6101306108c8565b6001600160a01b0381166000908152600360208181526040808420815160808101835281548082526001830154948201949094526002820154928101929092529092015460608301526102795750600092915050565b600081604001514261028b9190610bed565b9050600061029f6301e13380612710610bce565b835183906102b0906103e890610bce565b6102ba9190610bce565b6102c49190610bac565b95945050505050565b33600090815260036020526040902080548211156103325760405162461bcd60e51b815260206004820152601a60248201527f496e73756666696369656e74207374616b656420616d6f756e7400000000000060448201526064015b60405180910390fd5b61033a61048c565b8181600001600082825461034e9190610bed565b9250508190555081600460008282546103679190610bed565b90915550506002546000805460405163eca3691760e01b815291926001600160a01b039081169263eca36917926103a8921690309033908990600401610ab2565b602060405180830381600087803b1580156103c257600080fd5b505af11580156103d6573d6000803e3d6000fd5b505050506040513d601f19601f820116820180604052508101906103fa9190610a80565b90506016811461044c5760405162461bcd60e51b815260206004820152601760248201527f556e7374616b65207472616e73666572206661696c65640000000000000000006044820152606401610329565b6040805184815242602082015233917f7fc4727e062e336010f2c282598ef5f14facb3de68cf8195c2f23e1454b2b74e91015b60405180910390a2505050565b33600090815260036020526040902080546104da5760405162461bcd60e51b815260206004820152600e60248201526d139bc81cdd185ad948199bdd5b9960921b6044820152606401610329565b60006104e533610223565b90508015610668574282600201819055508082600301600082825461050a9190610b94565b9250508190555080600560008282546105239190610b94565b90915550506040805160008082526020820190925281610553565b606081526020019060019003908161053e5790505b506002546000805460405163707a02cd60e11b815293945090926001600160a01b039283169263e0f4059a926105929291169087908790600401610adf565b602060405180830381600087803b1580156105ac57600080fd5b505af11580156105c0573d6000803e3d6000fd5b505050506040513d601f19601f820116820180604052508101906105e49190610a80565b90506016811461062b5760405162461bcd60e51b815260206004820152601260248201527114995dd85c99081b5a5b9d0819985a5b195960721b6044820152606401610329565b6040805184815242602082015233917fdacbdde355ba930696a362ea6738feb9f8bd52dfb3d81947558fd3217e23e325910160405180910390a250505b5050565b60648110156106bd5760405162461bcd60e51b815260206004820152601a60248201527f416d6f756e742062656c6f77206d696e696d756d207374616b650000000000006044820152606401610329565b33600090815260036020526040902054156106da576106da61048c565b6002546000805460405163eca3691760e01b815291926001600160a01b039081169263eca3691792610716921690339030908890600401610ab2565b602060405180830381600087803b15801561073057600080fd5b505af1158015610744573d6000803e3d6000fd5b505050506040513d601f19601f820116820180604052508101906107689190610a80565b9050601681146107b25760405162461bcd60e51b815260206004820152601560248201527414dd185ad9481d1c985b9cd9995c8819985a5b1959605a1b6044820152606401610329565b3360009081526003602052604081208054909184918391906107d5908490610b94565b909155505042600182018190556002820155600480548491906000906107fc908490610b94565b90915550506040805184815242602082015233917f1449c6dd7851abc30abf37f57715f492010519147cc2652fbc38202c18a6ee90910161047f565b6001600160a01b0381166000908152600360208181526040808420815160808101835281548082526001830154948201949094526002820154928101929092529092015460608301528291829182919061089187610223565b826060015160008460200151116108a95760006108b8565b60208401516108b89042610bed565b9450945094509450509193509193565b33600090815260036020526040902080548061091d5760405162461bcd60e51b81526020600482015260146024820152734e6f207374616b6520746f20776974686472617760601b6044820152606401610329565b600080835560048054839290610934908490610bed565b90915550506002546000805460405163eca3691760e01b815291926001600160a01b039081169263eca3691792610975921690309033908890600401610ab2565b602060405180830381600087803b15801561098f57600080fd5b505af11580156109a3573d6000803e3d6000fd5b505050506040513d601f19601f820116820180604052508101906109c79190610a80565b905060168114610a195760405162461bcd60e51b815260206004820152601b60248201527f456d657267656e6379207769746864726177616c206661696c656400000000006044820152606401610329565b6040805183815242602082015233917f7fc4727e062e336010f2c282598ef5f14facb3de68cf8195c2f23e1454b2b74e910161047f565b600060208284031215610a6257600080fd5b81356001600160a01b0381168114610a7957600080fd5b9392505050565b600060208284031215610a9257600080fd5b5051919050565b600060208284031215610aab57600080fd5b5035919050565b6001600160a01b03948516815292841660208401529216604082015260079190910b606082015260800190565b60006060820160018060a01b038616835260208560070b818501526060604085015281855180845260808601915060808160051b87010193508287016000805b83811015610b8457888703607f1901855282518051808952835b81811015610b54578281018901518a82018a01528801610b39565b81811115610b64578489838c0101525b50601f01601f191697909701860196509385019391850191600101610b1f565b50949a9950505050505050505050565b60008219821115610ba757610ba7610c04565b500190565b600082610bc957634e487b7160e01b600052601260045260246000fd5b500490565b6000816000190483118215151615610be857610be8610c04565b500290565b600082821015610bff57610bff610c04565b500390565b634e487b7160e01b600052601160045260246000fdfea264697066735822122041d8602805ae42bcac2590860c8bfb3c930384bf4be61b559278ed9739cb862d64736f6c63430008070033",
  "linkReferences": {},
  "deployedLinkReferences": {}
}